:100000000C943A010C9457010C9457010C9457012D
:100010000C9457010C9457010C9457010C94570100
:100020000C9457010C9457010C9457010C945701F0
:100030000C9457010C9457010C9457010C945701E0
:100040000C9457010C9457010C9462010C945701C5
:100050000C9457010C9457010C9457010C945701C0
:100060000C9457010C94570111AE00A8013F2001D8
:10007000004000D30100A100C800DA011281017F15
:10008000A400A600D50180D901C2DB01208D011496
:100090002E00AF0000000000008181188181000760
:1000A000000700147F147F14242A7F2A12231308C8
:1000B000646236495522500005030000001C2241AD
:1000C000000041221C0014083E081408083E0808DD
:1000D0000050300000080808080800606000002098
:1000E000100804023E5149453E00427F40004261F3
:1000F0005149462141454B311814127F102745457F
:1001000045393C4A49493001710905033649494995
:1001100036064949291E00363600000056360000D2
:10012000081422410014141414140041221408026B
:1001300001510906324979413E7E1111117E7F49F4
:100140004949363E414141227F4141221C7F494974
:1001500049417F090909013E4149497A7F08080858
:100160007F00417F41002040413F017F0814224130
:100170007F404040407F020C027F7F0408107F3E9A
:100180004141413E7F090909063E4151215E7F09F7
:10019000192946464949493101017F01013F404043
:1001A000403F1F2040201F3F4038403F6314081449
:1001B0006307087008076151494543007F414100CA
:1001C00002040810200041417F00040201020440A3
:1001D00040404040000102040020545454787F48BD
:1001E0004444383844444420384444487F385454C4
:1001F0005418087E0901020C5252523E7F08040432
:100200007800447D40002040443D007F1028440099
:1002100000417F40007C041804787C08040478388E
:10022000444444387C14141408081414147C7C08C6
:100230000404084854545420043F4440203C4040A7
:10024000207C1C2040201C3C4030403C442810288E
:10025000440C5050503C4464544C44000836410017
:1002600000007F0000004136080010080810080058
:100270000000000011241FBECFEFD8E0DEBFCDBFCD
:1002800011E0A0E0B1E0EEE1FCE002C005900D92CB
:10029000AE30B107D9F722E0AEE0B1E001C01D9267
:1002A000AA31B207E1F70E94DB050C940D060C940D
:1002B00000009091C00095FFFCCF8093C60080E0C5
:1002C00090E008958F938FB78F939F93EF93FF9351
:1002D0008091C600E0910F0191E09E0F90930F0175
:1002E000F0E0E05FFE4F8083FF91EF919F918F914F
:1002F0008FBF8F911895CF93C82F0E946C058111E5
:1003000004C08C2FCF910C948C05CF910895CF937E
:10031000C82F80E80E94A505811104C08C2FCF91C1
:100320000C94A505CF910895EF92FF921F93CF9360
:10033000DF93C82FE8E6F0E014910E9460058C2F4F
:100340000E947B0181112CC084EE0E9487018111E3
:1003500027C08FE99FE00197F1F700C00000C9E6D0
:10036000D0E0111104C00E94D70580E019C07E01C1
:100370009FEFE91AF90AFE0184910E948701811119
:100380000FC0F701E4902296E11002C01150E9CFAE
:10039000FE0184910E9487012196EA948115A1F3C0
:1003A000DF91CF911F91FF90EF900895CF938CE351
:1003B0000E947B01C82F811108C086EA0E94870134
:1003C000C82F811102C00E94D7058C2FCF910895AC
:1003D000CF938CE30E947B01C82F811108C087EA6C
:1003E0000E948701C82F811102C00E94D7058C2F5F
:1003F000CF9108950F931F93CF938CE30E947B01BD
:10040000C82F81113FC081E20E948701C82F81114E
:1004100039C080E00E948701C82F811133C08FE767
:100420000E948701C82F81112DC0109213021092D3
:10043000120282E20E948701C82F811123C080E04E
:100440000E948701C82F81111DC087E00E9487018B
:10045000C82F811117C0109211021092100280E46F
:100460000E94A505C82F81110DC000E014E080E0B6
:100470000E94A505C82F811105C001501040B9F791
:100480000E94D7058C2FCF911F910F9108950F9344
:100490001F93CF93DF93D82F8CE30E947B01C82F4B
:1004A00081113FC081E20E948701C82F811139C0AC
:1004B00080E00E948701C82F811133C08FE70E941E
:1004C0008701C82F81112DC01092130210921202C1
:1004D00082E20E948701C82F811123C08D2F0E94C4
:1004E0008701C82F81111DC08D2F0E948701C82F41
:1004F000811117C0109211021092100280E40E9424
:10050000A505C82F81110DC000E810E080E00E9411
:10051000A505C82F811105C001501040B9F70E94F0
:10052000D7058C2FDF91CF911F910F910895EF92F6
:10053000FF920F931F93CF93DF93D82F062F8CE357
:100540000E947B01C82F811154C081E20E94870163
:10055000C82F81114EC0802F0E948701C82F8111A2
:1005600048C08FE7801B0E948701C82F811141C0BE
:1005700010E0109313020093120282E20E9487019E
:10058000C82F811136C08D2F0E948701C82F81117D
:1005900030C087E00E948701C82F81112AC01092C5
:1005A00011021092100280E40E94A505C82F81114B
:1005B00020C0000F111F2FE730E0201B310B87E018
:1005C00090E08D1B9109289F7001299FF00C389FA6
:1005D000F00C112400E010E080E00E94A505C82F77
:1005E000811107C00F5F1F4FE016F106A8F70E94A8
:1005F000D7058C2FDF91CF911F910F91FF90EF9036
:100600000895FF920F931F93CF93DF93182FF62E29
:10061000D42F022F8CE30E947B01C82F811132C09E
:1006200081E20E948701C82F81112CC0812F0E9476
:100630008701C82F811126C08F2D0E948701C82FE6
:10064000811120C0812F90E09093130280931202B9
:1006500082E20E948701C82F811114C08D2F0E9451
:100660008701C82F81110EC0802F0E948701C82FDB
:10067000811108C04D2F50E0509311024093100299
:100680000E94D7058C2FDF91CF911F910F91FF9082
:100690000895462F27E06FE70C94010387FF14C0ED
:1006A0006730A0F482E090E09093130280931202EE
:1006B00060911002709111026F5F7F4F7093110271
:1006C000609310020C94490380E0089581E008953E
:1006D000EF92FF920F931F93CF93DF93F82E8B012E
:1006E000CB018F709927009709F05CC080911202AE
:1006F000609110028B5F0E944E03C82F81114AC087
:100700008CE30E947B01C82F811144C080E40E94C9
:10071000A505C82F81113EC0007F1127D1E0012B14
:1007200009F4D0E0D795DD27D7958F2DFF0C990BD5
:10073000809725E0289F8001299F100D11240C56D9
:100740001F4F95E0F92EF80184918D2B0E94A5058D
:10075000C82F81111FC0809112029091130201963F
:100760009093130280931202FA940F5F1F4FF110BF
:10077000EACF8D2F0E94A505C82F81110BC0809153
:100780001202909113020196909313028093120229
:100790000E94D7058C2FDF91CF911F910F91FF9071
:1007A000EF900895D0E0019721F7809112026091B7
:1007B0001002865F0E944E03C82F8111EBCF8CE39D
:1007C0000E947B01C82F8111E5CF80E40E94A5051E
:1007D000C82F8111DFCF007F1127D1E0012B09F451
:1007E000D0E0D795DD27D7958F2DFF0C990B8097FB
:1007F00025E0289F8001299F100D11240C561F4FC2
:1008000085E0E82EF801F490FD2A8F2D0E94A505C1
:10081000C82F8111BFCF8F2D0E94A505C82F811130
:10082000B9CF809112029091130202969093130215
:1008300080931202EA940F5F1F4FE110E3CF99CF2C
:10084000FF920F931F93CF93DF93EC01062FF72EA8
:1008500010E0FE01E10FF11D8081811106C0DF91E2
:10086000CF911F910F91FF9008951F5F602F7F2DF3
:100870000E946803EECFEF92FF920F931F93CF93E6
:10088000DF93D82FF62EE42E062F10E0262F240F0C
:100890003327331FC1E0283031050CF047C08CE30B
:1008A0000E947B01C82F811141C081E20E94870113
:1008B000C82F81113BC08D2F0E948701C82F811145
:1008C00035C08D2F0E948701C82F81112FC08D2F19
:1008D00090E0909313028093120282E20E948701BB
:1008E000C82F811123C08F2D0E948701C82F81112D
:1008F0001DC08F2D8E0D0E948701C82F811116C03B
:10090000109311020093100280E40E94A505C82FE5
:1009100081110CC0D0E08FEF0E94A505C82F811176
:1009200005C0DF5FED16B8F70E94D7058C2FDF9169
:10093000CF911F910F91FF90EF900895DF92EF926A
:10094000FF920F931F93CF93DF93182FD62F042F6F
:10095000D22EE82EF12C282F240F3327331FC1E08D
:1009600020383105E4F58CE30E947B01C82F81110A
:1009700036C081E20E948701C82F811130C0812FCB
:100980000E948701C82F81112AC0812F800F0E94E9
:100990008701C82F811123C0F0921302E092120246
:1009A00082E20E948701C82F811119C08D2F0E94F9
:1009B0008701C82F811113C08D2F0E948701C82F76
:1009C00081110DC06D2F70E07093110260931002C1
:1009D00080E40E94A505C82FD0E08115C1F08C2FBE
:1009E000DF91CF911F910F91FF90EF90DF900895CD
:1009F0008D2D0E94A505DF5F81110EC0809112022E
:100A000090911302019690931302809312020D139A
:100A1000EFCF0E94D705E3CFC82FE1CF1F93CF932D
:100A2000DF93162FD42F0E947B01C82F811132C073
:100A300087E20E948701C82F81112CC080E00E94AC
:100A40008701C82F811126C0812F0E948701C82FDE
:100A5000811120C080E00E948701C82F81111AC037
:100A60008D2F0E948701C82F811114C080E00E9441
:100A70008701C82F81110EC08FEF0E948701C82FF8
:100A8000811108C08FE20E948701C82F811102C026
:100A90000E94D7058C2FDF91CF911F910895CF939E
:100AA0000E947B01C82F811108C08EE20E9487013D
:100AB000C82F811102C00E94D7058C2FCF910895B5
:100AC00082E08093B800E9EBF0E090818081927041
:100AD000892B8160808308958091B9008775809308
:100AE000B90085EA8093BC008FEF91E02091BC00B3
:100AF00027FD02C00197D1F78091B900887F883027
:100B000049F08091B900887F803121F08091B9004F
:100B1000887F089580E00895880F8093BB0084E863
:100B20008093BC008FEF91E02091BC0027FD02C0B4
:100B30000197D1F78091B900887F883121F08091A9
:100B4000B900887F089580E008958093BB0084E811
:100B50008093BC008FEF91E02091BC0027FD02C084
:100B60000197D1F78091B900887F883221F0809178
:100B7000B900887F089580E00895880F8160809390
:100B8000BB0084E88093BC008FEF91E02091BC0013
:100B900027FD02C00197D1F78091B900887F80348A
:100BA00021F08091B900887F089580E0089584E95C
:100BB0008093BC0008951092C50087E68093C4001E
:100BC00088E98093C10086E08093C20080E091E0D4
:100BD00090931702809316028CE30E949401811176
:100BE00019C00E94FA01789490910F0180910E0132
:100BF0009817D1F3E0910E0181E08E0F80930E01E2
:100C0000F0E0E05FFE4F8081F89460E070E00E94C9
:0E0C10006803E9CF80E090E00895F894FFCFEC
:0E0C1E0000000002000000005901000000006C
:00000001FF
