:100000000C9434000C9449000C9449000C94490061
:100010000C9449000C9449000C9449000C9449003C
:100020000C9449000C9449000C9449000C9449002C
:100030000C9449000C9449000C9449000C9449001C
:100040000C9449000C9449000C9449000C9449000C
:100050000C9449000C9449000C9449000C944900FC
:100060000C9449000C94490011241FBECFEFD8E036
:10007000DEBFCDBF11E0A0E0B1E0EAE7FAE002C0E8
:1000800005900D92A03FB107D9F70E949A010C94F8
:100090003B050C9400001092C50087E68093C400D5
:1000A00088E18093C10086E08093C200089590911A
:1000B000C00095FFFCCF8093C6000895CF93DF93D7
:1000C000EC018991811103C0DF91CF9108950E94C5
:1000D0005700F7CFCF93DF93CDB7DEB761970FB659
:1000E000F894DEBF0FBECDBF9C0181E1E0E0F1E0FE
:1000F000DE01119601900D928A95E1F7862F829587
:100100008F70FE013196E80FF11D8081F901808327
:100110006F70FE013196E60FF11D8081F901818338
:10012000128261960FB6F894DEBF0FBECDBFDF918D
:10013000CF91089589EC90E04A9B0CC085ED8A959B
:10014000F1F7000088274A99839529EC30E04A9915
:1001500005C00895019781F782E00895215030404D
:10016000D9F3F5CF6F927F928F929F92AF92BF9209
:10017000CF92DF92EF92FF920F931F93CF93DF9373
:10018000CDB7DEB728970FB6F894DEBF0FBECDBF50
:100190006C015B01FE01319685E0DF011D928A95BD
:1001A000E9F7529A5A988FE19EE40197F1F700C05F
:1001B00000005A9A529895ED9A95F1F700004A9BE3
:1001C00016C081E028960FB6F894DEBF0FBECDBFF3
:1001D000DF91CF911F910F91FF90EF90DF90CF9023
:1001E000BF90AF909F908F907F906F900895AFE3F6
:1001F000B1E01197F1F700C000004A9BE2CF8FE316
:1002000091E00197F1F700C000007F014E0196E0F8
:10021000890E911C840188E0782E0E949A00823019
:1002200089F2D7019C91990F813009F49160F7010F
:1002300090837A9491F7FFEFEF1AFF0A8E149F04D0
:1002400051F769807A808B809C80F62CF70CF80C33
:10025000F90CED80FE1017C029813A814B815C8139
:10026000942F852F47FF04C09F7791958195910921
:10027000322723273227D5012D933C93F601918312
:10028000808380E09FCF81E191E00E945E00662D37
:10029000C8010E946A00C8010E945E008BE891E0DC
:1002A0000E945E00672DC8010E946A00C8010E947A
:1002B0005E008BE891E00E945E00682DC8010E94FC
:1002C0006A00C8010E945E008BE891E00E945E0017
:1002D000692DC8010E946A00C8010E945E008CE17D
:1002E00091E00E945E006E2DC8010E946A00C80164
:1002F0000E945E008BEC91E00E945E0080E291E043
:100300000E945E006F2DC8010E946A00C8010E9411
:100310005E008BE291E00E945E006E2DC8010E949B
:100320006A00C8010E945E0085E391E00E945E00C1
:1003300083E048CFCDB7DEB7C454D1090FB6F894E7
:10034000DEBF0FBECDBF0E944B008FE491E00E9444
:100350005E002FEF47EA51E6215040405040E1F760
:1003600000C000000AE010E089E7E82E81E0F82EE6
:100370009DE8C92E91E0D92E2DECA22E21E0B22EBF
:100380003DE4832E31E0932EBE016F5B7F4FCE01A3
:100390008D5B9F4F0E94B200811150C023968EAD9D
:1003A0009FAD2397B8010E942A029F938F937F935A
:1003B0006F93FF92EF92CE0101969F938F930E94CD
:1003C0005202CE0101960E945E0025962EAD3FADF1
:1003D0002597C90137FF04C088279927821B930BF3
:1003E000B8010E942A020FB6F894DEBF0FBECDBF3F
:1003F00037FF22C094019F938F937F936F933F9316
:100400002F93DF92CF92CE0101969F938F930E94FC
:100410005202CE0101960E945E000FB6F894DEBF34
:100420000FBECDBF5FEF81E19AE751508040904011
:10043000E1F700C00000A8CF9501DDCF813029F49D
:1004400088EA91E00E945E00EDCF823059F78EEC91
:1004500091E0F8CF97FB072E16F4009407D077FDB4
:1004600009D00E943E0207FC05D03EF4909581958C
:100470009F4F0895709561957F4F0895AA1BBB1BF0
:1004800051E107C0AA1FBB1FA617B70710F0A61B94
:10049000B70B881F991F5A95A9F780959095BC01B5
:1004A000CD010895AEE0B0E0E8E5F2E00C9412056D
:1004B0000D891E8986E08C831A8309838FEF9FE75D
:1004C0009E838D83AE01475E5F4F6F89788DCE012D
:1004D00001960E9475022F813885020F131FF801C3
:1004E00010822E96E4E00C942E05ABE0B0E0EBE732
:1004F000F2E00C9407056C017B018A01FC01178274
:100500001682838181FFD9C19AE0592EF601238199
:10051000F70123FD859123FF81917F01811509F466
:100520001FC1853239F423FD959123FF91917F01FD
:10053000953229F4B60190E00E947604E7CF30E0CE
:10054000912C612C712CF0E27F1640F59B32D9F092
:1005500058F49032D1F09332F1F09E3299F576FC56
:10056000FFC0689476F806C09D3291F09033C1F4D4
:10057000689470F8F70123FD959123FF91917F0115
:100580009111E1CF29C0689471F8689472F8F2CFA4
:10059000689473F8EFCF689474F8ECCF77FC1CC0C4
:1005A00080ED890F8A30C8F676FE05C0959C800DD7
:1005B0001124982EDFCF659C800D1124682E68943D
:1005C00075F8D8CF9C3619F4689477F8D3CF9C345B
:1005D00009F44BC0983671F2892F8F7D8554833092
:1005E00008F445C0933609F466C0933709F469C02E
:1005F000933509F475C0943619F0993609F09FC007
:10060000F80177FE95C061917191819191918F016F
:10061000272D2F76822E97FF09C090958095709593
:1006200061957F4F8F4F9F4F689487F82AE030E0A5
:10063000AE014F5F5F4F5A010E94A6048A19A82E8F
:1006400086FEC4C0882D8E7FA91408F0BEC084FE2B
:1006500011C182FC05C1F82DFE7E8F2EB92C882D8C
:100660008678811509F4BFC000C131E083CF311510
:10067000F9F0085F1F4F8FE3898388248394912CBE
:10068000AE014F5F5F4F5A01E89477F873FC03C0E7
:1006900086149104B0F181149104D1F5611409F428
:1006A00035CFB60180E290E00E9476046A94F6CFDE
:1006B0000C5F1F4FE0CFF801808189830E5F1F4FD1
:1006C000DCCFF801A190B1908F01692D70E076FC2C
:1006D00002C06FEF7FEFC5010E946B044C01D4CFC5
:1006E000F801A190B1908F01692D70E076FC02C0F5
:1006F0006FEF7FEFC5010E9460044C01689477F8AA
:10070000C5CFB60180E290E00E9476046A94C0CF23
:10071000F50177FC859177FE81915F01B60190E04C
:100720000E94760461106A94F1E08F1A9108B3CFA9
:1007300061917191072E000C880B990B68CF872C63
:10074000E89484F82AE030E0953739F1572D597F45
:10075000852E903799F058F49835A9F09F36D9F046
:10076000F601868197812B96EFE00C94230598374C
:10077000B9F774FC05C020E130E00FC0689484F83C
:10078000689482F8F8CF74FE03C0872D8660882EA7
:1007900020E132E002C028E030E0F80187FE10C01E
:1007A00061917191819191918F01FE0131965F016B
:1007B000AF010E94A6048A19A82EE89487F840CFBA
:1007C0006191719180E090E0EFCF882EBA2C84FE89
:1007D00046CFFE01EA0DF11D8081803309F043C050
:1007E000282D297E822E83FC0EC080FE4FC09A2CBD
:1007F000B61418F4960C9B18B62C862D8B196B1416
:1008000008F480E0B80EB61408F042C06B1884FEFD
:1008100041C0B60180E390E00E94760482FE09C0E8
:1008200088E590E081FC02C088E790E0B6010E9474
:100830007604A914D8F1AA94B12C4FEFA41AB40AE3
:10084000CE0101964C01A80EB91EF50182915F01FF
:10085000B60190E00E9476048A149B04B1F71ECF83
:10086000B92C882EB6CF82FC02C0B394BCCFB3940F
:10087000B394B9CFB92C882EF2CEB60180E290E0C5
:100880000E94760473947614C0F3B7CF7B2CFBCF11
:10089000612CBDCF882D8678811559F280E281FCCC
:1008A0008BE287FC8DE2B60190E0C1CFB60180E318
:1008B00090E00E9476049A94BCCF8FEF9FEF53CFC5
:1008C000FC010590615070400110D8F7809590951B
:1008D0008E0F9F1F0895FC01615070400190011020
:1008E000D8F7809590958E0F9F1F08950F931F93B3
:1008F000CF93DF93182F092FEB018B8181FD09C066
:100900001FEF0FEF812F902FDF91CF911F910F914C
:10091000089582FF14C02E813F818C819D8128170C
:1009200039073CF4E881F981CF01019699838883E6
:1009300010838E819F8101969F838E83E3CFE8850C
:10094000F985812F0995892BA1F3DACFFA01AA271E
:10095000283051F1203181F1E8946F936E7F6E5F02
:100960007F4F8F4F9F4FAF4FB1E03ED0B4E03CD0B0
:10097000670F781F891F9A1FA11D680F791F8A1F93
:10098000911DA11D6A0F711D811D911DA11D20D0FA
:1009900009F468943F912AE0269F11243019305DB4
:1009A0003193DEF6CF010895462F4770405D4193A5
:1009B000B3E00FD0C9F7F6CF462F4F70405D4A33F2
:1009C00018F0495D31FD4052419302D0A9F7EACFBA
:1009D000B4E0A6959795879577956795BA95C9F7E9
:1009E00000976105710508959B01AC010A2E0694DC
:1009F0005795479537952795BA95C9F7620F731F95
:100A0000841F951FA01D08952F923F924F925F92D1
:100A10006F927F928F929F92AF92BF92CF92DF920E
:100A2000EF92FF920F931F93CF93DF93CDB7DEB773
:100A3000CA1BDB0B0FB6F894DEBF0FBECDBF099407
:100A40002A88398848885F846E847D848C849B845E
:100A5000AA84B984C884DF80EE80FD800C811B816C
:100A6000AA81B981CE0FD11D0FB6F894DEBF0FBE9B
:0A0A7000CDBFED010895F894FFCF0B
:100A7A0030313233343536373839414243444546CA
:100A8A000052617720446174613A2000207C200082
:100A9A004353202843616C633A2000207C2052652E
:100AAA0063763A200029202D20436865636B7375AD
:100ABA006D204661696C65640D0A0D0A002D0044BB
:100ACA0048543232204465627567204C6F67676507
:100ADA007220496E697469616C697A65642028318B
:100AEA00364D487A292E0D0A0048756D6964697475
:100AFA00793A2025642E256425252C200054656D1D
:100B0A0070657261747572653A20257325642E25A5
:100B1A006420430D0A0D0A004448543232205265BB
:100B2A006164204572726F723A203120284E6F201C
:100B3A00526573706F6E7365290D0A0D0A00444879
:100B4A005432322052656164204572726F723A20C3
:100B5A0032202854696D656F7574290D0A0D0A00D3
:00000001FF
