:100000000C945A000C9477000C9477000C947700B1
:100010000C9477000C9477000C9477000C94770084
:100020000C9477000C9477000C9477000C94770074
:100030000C9477000C9477000C9477000C94770064
:100040000C9477000C9477000C9477000C94770054
:100050000C9477000C9477000C9477000C94770044
:100060000C9477000C9477000C9477000C94770034
:100070000C9477000C9477000C9477000C94770024
:100080000C9477000C9477000C9477000C94770014
:100090000C9477000C9477000C9477000C94770004
:1000A0000C9477000C9477000C9477000C947700F4
:1000B0000C94770011241FBECFEFD8E0DEBFCDBF78
:1000C00011E0A0E0B1E0E8E1F8E002C005900D9297
:1000D000A036B107D9F721E0A0E6B1E001C01D923A
:1000E000A636B207E1F70E949A000C940A040C9419
:1000F00000009091C00095FFFCCF8093C60080E087
:1001000090E0089589EC90E04A9B0CC085ED8A95BB
:10011000F1F7000088274A99839529EC30E04A9945
:1001200005C00895019781F782E00895215030407D
:10013000D9F3F5CF00D000D00F92CDB7DEB7FE01D6
:10014000319685E0DF011D928A95E9F71092C5008E
:1001500087E68093C40088E18093C1008EE080939D
:10016000C20080E091E09093630180936201DE2EF3
:10017000CF2E7E01B6E0EB0EF11C529A5A98EFE1B9
:10018000FEE43197F1F700C000005A9A5298F5ED5D
:10019000FA95F1F700004A9956C08FE391E0019774
:1001A000F1F700C000004A9B4EC0AFE3B1E01197E9
:1001B000F1F700C000000D2D1C2D88E0B82E0E9424
:1001C0008200823009F447C0F8019081990F813094
:1001D00009F49160D8019C93BA9489F70F5F1F4F7F
:1001E000E016F10651F76D8129813A814B815C81DE
:1001F000E22FE30FFF27FF1FCF01840F911D850F13
:10020000911D68171906A9F41F926F931F925F93AF
:100210001F924F931F923F931F922F938EE091E076
:100220009F938F930E942E010FB6F894DEBF0FBEEE
:10023000CDBF9FEFA1E1BAE79150A040B040E1F7F8
:1002400000C000009ACF81E090E00F900F900F90D7
:100250000F900F90089582E090E0F7CFA0E0B0E01B
:10026000E4E3F1E00C94E303AE014B5F5F4FFA016E
:1002700061917191AF0180916201909163010E943F
:100280004401E2E00C94FF03ABE0B0E0EAE4F1E00B
:100290000C94D6036C017B018A01FC011782168243
:1002A000838181FFD9C19AE0592EF6012381F7019C
:1002B00023FD859123FF81917F01811509F41FC1E1
:1002C000853239F423FD959123FF91917F01953279
:1002D00029F4B60190E00E944503E7CF30E0912C6D
:1002E000612C712CF0E27F1640F59B32D9F058F466
:1002F0009032D1F09332F1F09E3299F576FCFFC046
:10030000689476F806C09D3291F09033C1F46894F9
:1003100070F8F70123FD959123FF91917F019111D1
:10032000E1CF29C0689471F8689472F8F2CF6894AC
:1003300073F8EFCF689474F8ECCF77FC1CC080EDB5
:10034000890F8A30C8F676FE05C0959C800D112471
:10035000982EDFCF659C800D1124682E689475F867
:10036000D8CF9C3619F4689477F8D3CF9C3409F42D
:100370004BC0983671F2892F8F7D8554833008F4F5
:1003800045C0933609F466C0933709F469C09335C4
:1003900009F475C0943619F0993609F09FC0F80138
:1003A00077FE95C061917191819191918F01272D77
:1003B0002F76822E97FF09C0909580957095619554
:1003C0007F4F8F4F9F4F689487F82AE030E0AE014F
:1003D0004F5F5F4F5A010E9475038A19A82E86FE4F
:1003E000C4C0882D8E7FA91408F0BEC084FE11C140
:1003F00082FC05C1F82DFE7E8F2EB92C882D8678C3
:10040000811509F4BFC000C131E083CF3115F9F087
:10041000085F1F4F8FE3898388248394912CAE015A
:100420004F5F5F4F5A01E89477F873FC03C086145E
:100430009104B0F181149104D1F5611409F435CF20
:10044000B60180E290E00E9445036A94F6CF0C5F0B
:100450001F4FE0CFF801808189830E5F1F4FDCCFF3
:10046000F801A190B1908F01692D70E076FC02C077
:100470006FEF7FEFC5010E943A034C01D4CFF80122
:10048000A190B1908F01692D70E076FC02C06FEFF2
:100490007FEFC5010E942F034C01689477F8C5CF08
:1004A000B60180E290E00E9445036A94C0CFF50156
:1004B00077FC859177FE81915F01B60190E00E9403
:1004C000450361106A94F1E08F1A9108B3CF6191EE
:1004D0007191072E000C880B990B68CF872CE8943C
:1004E00084F82AE030E0953739F1572D597F852E71
:1004F000903799F058F49835A9F09F36D9F0F60165
:10050000868197812B96EFE00C94F2039837B9F728
:1005100074FC05C020E130E00FC0689484F8689452
:1005200082F8F8CF74FE03C0872D8660882E20E104
:1005300032E002C028E030E0F80187FE10C061918F
:100540007191819191918F01FE0131965F01AF010F
:100550000E9475038A19A82EE89487F840CF61910C
:10056000719180E090E0EFCF882EBA2C84FE46CFC8
:10057000FE01EA0DF11D8081803309F043C0282D72
:10058000297E822E83FC0EC080FE4FC09A2CB614AA
:1005900018F4960C9B18B62C862D8B196B1408F446
:1005A00080E0B80EB61408F042C06B1884FE41C05B
:1005B000B60180E390E00E94450382FE09C088E511
:1005C00090E081FC02C088E790E0B6010E944503FC
:1005D000A914D8F1AA94B12C4FEFA41AB40ACE01F1
:1005E00001964C01A80EB91EF50182915F01B6017A
:1005F00090E00E9445038A149B04B1F71ECFB92CEA
:10060000882EB6CF82FC02C0B394BCCFB394B3940F
:10061000B9CFB92C882EF2CEB60180E290E00E94CC
:10062000450373947614C0F3B7CF7B2CFBCF612CBA
:10063000BDCF882D8678811559F280E281FC8BE24E
:1006400087FC8DE2B60190E0C1CFB60180E390E077
:100650000E9445039A94BCCF8FEF9FEF53CFFC01CC
:100660000590615070400110D8F7809590958E0FDD
:100670009F1F0895FC016150704001900110D8F750
:10068000809590958E0F9F1F08950F931F93CF9382
:10069000DF93182F092FEB018B8181FD09C01FEF1C
:1006A0000FEF812F902FDF91CF911F910F91089520
:1006B00082FF14C02E813F818C819D8128173907CC
:1006C0003CF4E881F981CF010196998388831083F6
:1006D0008E819F8101969F838E83E3CFE885F98584
:1006E000812F0995892BA1F3DACFFA01AA272830A7
:1006F00051F1203181F1E8946F936E7F6E5F7F4FEF
:100700008F4F9F4FAF4FB1E03ED0B4E03CD0670F6A
:10071000781F891F9A1FA11D680F791F8A1F911DBD
:10072000A11D6A0F711D811D911DA11D20D009F40D
:1007300068943F912AE0269F11243019305D31934F
:10074000DEF6CF010895462F4770405D4193B3E038
:100750000FD0C9F7F6CF462F4F70405D4A3318F0DF
:10076000495D31FD4052419302D0A9F7EACFB4E090
:10077000A6959795879577956795BA95C9F7009748
:100780006105710508959B01AC010A2E06945795E9
:10079000479537952795BA95C9F7620F731F841F40
:1007A000951FA01D08952F923F924F925F926F92D6
:1007B0007F928F929F92AF92BF92CF92DF92EF92F1
:1007C000FF920F931F93CF93DF93CDB7DEB7CA1B72
:1007D000DB0B0FB6F894DEBF0FBECDBF09942A889D
:1007E000398848885F846E847D848C849B84AA8445
:1007F000B984C884DF80EE80FD800C811B81AA81D2
:10080000B981CE0FD11D0FB6F894DEBF0FBECDBF9C
:08081000ED010895F894FFCFFB
:1008180000000002000000007900000000005248BB
:10082800696E74656772616C203D2025642C2052C6
:1008380048646563696D616C203D2025642C2054F3
:10084800696E74656772616C203D2025642C2054A4
:10085800646563696D616C203D2025642C206368A4
:1008680065636B73756D203D2025642E0D0A0000AD
:00000001FF
