:100000000C945A000C9477000C9477000C947700B1
:100010000C9477000C9477000C9477000C94770084
:100020000C9477000C9477000C9477000C94820069
:100030000C9477000C9477000C9477000C94770064
:100040000C9477000C9477000C9477000C94770054
:100050000C9477000C9477000C9477000C94770044
:100060000C9477000C9477000C9477000C94770034
:100070000C9477000C9477000C9477000C94770024
:100080000C9477000C9477000C9477000C94770014
:100090000C9477000C9477000C9477000C94770004
:1000A0000C9477000C9477000C9477000C947700F4
:1000B0000C94770011241FBECFEFD8E0DEBFCDBF78
:1000C00011E0A0E0B1E0E2E8F7E002C005900D9297
:1000D000A232B107D9F721E0A2E2B1E001C01D923E
:1000E000AA32B207E1F70E94BB000C94BF030C9444
:1000F00000009091C00095FFFCCF8093C60080E087
:1001000090E008951F920F920FB60F9211242F9333
:100110003F934F935F936F937F938F939F93AF938F
:10012000BF93EF93FF9380912201909123019C0153
:100130002F5F3F4F30932301209322019F938F9392
:100140008EE091E09F938F930E94E3000F900F90B9
:100150000F900F90FF91EF91BF91AF919F918F9171
:100160007F916F915F914F913F912F910F900FBEB3
:100170000F901F9018951092C50087E68093C400D9
:1001800088E18093C1008EE08093C200809181005D
:1001900088608093810080918100856080938100D8
:1001A00089E09DE3909389008093880080916F009F
:1001B000826080936F00789480E091E090932701B3
:1001C00080932601FFCFA0E0B0E0E9EEF0E00C94D0
:1001D0009803AE014B5F5F4FFA0161917191AF01DE
:1001E00080912601909127010E94F900E2E00C9491
:1001F000B403ABE0B0E0EFEFF0E00C948B036C01E4
:100200007B018A01FC0117821682838181FFD9C19B
:100210009AE0592EF6012381F70123FD859123FFF2
:1002200081917F01811509F41FC1853239F423FDC5
:10023000959123FF91917F01953229F4B60190E0C9
:100240000E94FA02E7CF30E0912C612C712CF0E291
:100250007F1640F59B32D9F058F49032D1F09332AA
:10026000F1F09E3299F576FCFFC0689476F806C0EE
:100270009D3291F09033C1F4689470F8F70123FD3A
:10028000959123FF91917F019111E1CF29C068944D
:1002900071F8689472F8F2CF689473F8EFCF6894AD
:1002A00074F8ECCF77FC1CC080ED890F8A30C8F65B
:1002B00076FE05C0959C800D1124982EDFCF659C9D
:1002C000800D1124682E689475F8D8CF9C3619F4E7
:1002D000689477F8D3CF9C3409F44BC0983671F208
:1002E000892F8F7D8554833008F445C0933609F4F7
:1002F00066C0933709F469C0933509F475C0943624
:1003000019F0993609F09FC0F80177FE95C0619108
:100310007191819191918F01272D2F76822E97FFD8
:1003200009C090958095709561957F4F8F4F9F4F35
:10033000689487F82AE030E0AE014F5F5F4F5A01C2
:100340000E942A038A19A82E86FEC4C0882D8E7F9B
:10035000A91408F0BEC084FE11C182FC05C1F82DAD
:10036000FE7E8F2EB92C882D8678811509F4BFC0AA
:1003700000C131E083CF3115F9F0085F1F4F8FE3E3
:10038000898388248394912CAE014F5F5F4F5A017B
:10039000E89477F873FC03C086149104B0F18114DB
:1003A0009104D1F5611409F435CFB60180E290E0F3
:1003B0000E94FA026A94F6CF0C5F1F4FE0CFF8015B
:1003C000808189830E5F1F4FDCCFF801A190B1902F
:1003D0008F01692D70E076FC02C06FEF7FEFC501E1
:1003E0000E94EF024C01D4CFF801A190B1908F018F
:1003F000692D70E076FC02C06FEF7FEFC5010E94AF
:10040000E4024C01689477F8C5CFB60180E290E031
:100410000E94FA026A94C0CFF50177FC859177FEBD
:1004200081915F01B60190E00E94FA0261106A9426
:10043000F1E08F1A9108B3CF61917191072E000CF2
:10044000880B990B68CF872CE89484F82AE030E079
:10045000953739F1572D597F852E903799F058F4FB
:100460009835A9F09F36D9F0F601868197812B96B1
:10047000EFE00C94A7039837B9F774FC05C020E1AE
:1004800030E00FC0689484F8689482F8F8CF74FE66
:1004900003C0872D8660882E20E132E002C028E06C
:1004A00030E0F80187FE10C06191719181919191C6
:1004B0008F01FE0131965F01AF010E942A038A1964
:1004C000A82EE89487F840CF6191719180E090E088
:1004D000EFCF882EBA2C84FE46CFFE01EA0DF11D27
:1004E0008081803309F043C0282D297E822E83FC31
:1004F0000EC080FE4FC09A2CB61418F4960C9B18B0
:10050000B62C862D8B196B1408F480E0B80EB61447
:1005100008F042C06B1884FE41C0B60180E390E051
:100520000E94FA0282FE09C088E590E081FC02C0C8
:1005300088E790E0B6010E94FA02A914D8F1AA94C3
:10054000B12C4FEFA41AB40ACE0101964C01A80EAB
:10055000B91EF50182915F01B60190E00E94FA0296
:100560008A149B04B1F71ECFB92C882EB6CF82FC1B
:1005700002C0B394BCCFB394B394B9CFB92C882E36
:10058000F2CEB60180E290E00E94FA0273947614F3
:10059000C0F3B7CF7B2CFBCF612CBDCF882D8678E5
:1005A000811559F280E281FC8BE287FC8DE2B60175
:1005B00090E0C1CFB60180E390E00E94FA029A94E5
:1005C000BCCF8FEF9FEF53CFFC010590615070407F
:1005D0000110D8F7809590958E0F9F1F0895FC010C
:1005E0006150704001900110D8F7809590958E0F62
:1005F0009F1F08950F931F93CF93DF93182F092FF9
:10060000EB018B8181FD09C01FEF0FEF812F902F30
:10061000DF91CF911F910F91089582FF14C02E8119
:100620003F818C819D81281739073CF4E881F9814D
:10063000CF0101969983888310838E819F810196D3
:100640009F838E83E3CFE885F985812F0995892BD8
:10065000A1F3DACFFA01AA27283051F1203181F134
:10066000E8946F936E7F6E5F7F4F8F4F9F4FAF4FBA
:10067000B1E03ED0B4E03CD0670F781F891F9A1FCD
:10068000A11D680F791F8A1F911DA11D6A0F711D81
:10069000811D911DA11D20D009F468943F912AE08D
:1006A000269F11243019305D3193DEF6CF01089575
:1006B000462F4770405D4193B3E00FD0C9F7F6CFA6
:1006C000462F4F70405D4A3318F0495D31FD40526E
:1006D000419302D0A9F7EACFB4E0A6959795879504
:1006E00077956795BA95C9F70097610571050895E3
:1006F0009B01AC010A2E069457954795379527958F
:10070000BA95C9F7620F731F841F951FA01D089526
:100710002F923F924F925F926F927F928F929F9211
:10072000AF92BF92CF92DF92EF92FF920F931F93FF
:10073000CF93DF93CDB7DEB7CA1BDB0B0FB6F894B0
:10074000DEBF0FBECDBF09942A88398848885F84F0
:100750006E847D848C849B84AA84B984C884DF8061
:10076000EE80FD800C811B81AA81B981CE0FD11D45
:100770000FB6F894DEBF0FBECDBFED010895F8941B
:02078000FFCFA9
:100782000000000200000000790000000000536534
:10079200636F6E647320676F6E653A2025690D0A78
:0207A200000055
:00000001FF
